:1000000045C0000058C0000056C0000054C00000A9
:1000100052C0000050C000004EC000004CC00000A4
:100020004AC0000048C0000046C0000044C00000B4
:1000300042C0000040C000003EC000003CC00000C4
:100040003AC0000038C0000036C0000034C00000D4
:1000500032C0000030C000002EC000002CC00000E4
:100060002AC0000028C0000026C0000024C00000F4
:1000700022C0000020C000001EC000001CC0000004
:100080001AC0000018C0000016C0000011241FBED6
:10009000CFEFD0E1DEBFCDBF11E0A0E0B1E0E6E2FE
:1000A000F2E000E00BBF02C007900D92A630B1074E
:1000B000D9F7ADD0B6C0A4CFE2E6F0E08081886089
:1000C000808385E08A95F1F700008081877F8083B7
:1000D00085E08A95F1F700000895CF93C82F8FE946
:1000E0009FE00197F1F700C00000E2E6F0E08081B8
:1000F0008D7F808380818B7F80838081877F8083D9
:1001000083B18F7083B983B19C2F907F892B83B982
:10011000D3DF83B18F7083B923B130E1C39FC001B6
:100120001124822B83B9C8DFCF91089582B1806FEB
:1001300082B9E1E6F0E080818E608083E2E6F0E063
:1001400080818D7F808380818E7F808380E283B9F0
:10015000B3DFB2DFB1DF88E2C0DF88E2BEDF88E272
:10016000BCDF82E0BADF81E0B8DF8FE0B6CF089570
:10017000CF93C82F8FE99FE00197F1F700C00000EF
:10018000E2E6F0E080818260808380818B7F8083E3
:100190008081877F808383B18F7083B983B19C2FE7
:1001A000907F892B83B988DF83B18F7083B923B1A6
:1001B00030E1C39FC0011124822B83B97DDFCF9131
:1001C0000895CF93DF93EC0101C0D2DF88818111C4
:1001D000FCCFDF91CF910895823069F018F481301F
:1001E00031F00895833059F0843069F0089580E843
:1001F000860F73CF089580EC860F6FCF089580E946
:10020000860F6BCF089580ED860F67CF08958EDF40
:1002100081E063DF61E081E0DFDF80E091E0D1DF5A
:06022000FFCFF894FFCFB0
:06022600626C6D61000036
:00000001FF
