S00D00006B616D72612E737265630B
S113000081C000009DC000009BC0000099C000009A
S113001097C0000095C0000093C0000091C000008C
S11300208FC000008DC000008BC0000089C000009C
S113003087C0000085C0000083C000005BC20000D0
S11300407FC000007DC000007BC0000079C00000BC
S113005077C0000075C0000073C0000071C00000CC
S11300606FC000006DC000006BC0000069C00000DC
S113007067C0000065C0000063C0000061C00000EC
S11300805FC000005DC000005BC000001B031C03D8
S1130090050307031C031C031C031C0309031C03A3
S11300A00B030D031C031C031C031C031C031C0374
S11300B01C031C031C031C031C031C030F031C0351
S11300C0110313031C031C031C031C031C031C0348
S11300D01C031C031C031C031C031C031C031C0324
S11300E01C031C031C031C031C031C031C031C0314
S11300F01C031C031C031C031C031C0315031C030B
S11301001703190311241FBECFEFD0E1DEBFCDBF0B
S113011011E0A0E0B1E0E8E7F4E100E00BBF02C0C9
S113012007900D92AA35B107D9F721E0AAE5B1E00D
S113013001C01D92AA37B207E1F70CD10C943A0A18
S11301405FCFE2E6F0E08081877F80838DE08A954F
S1130150F1F700008081886080838DE08A95F1F753
S113016000008081877F80838DE08A95F1F700000D
S11301700895CF93C82F8FE99FE00197F1F700C04E
S11301800000E2E6F0E080818B7F808380818D7FB8
S1130190808383B18F7083B983B19C2F907F892B27
S11301A083B9CFDF83B18F7083B923B130E1C39FAB
S11301B0C0011124822B83B9C4DFCF910895CF935A
S11301C0C82F8FE99FE00197F1F700C00000E2E635
S11301D0F0E080818B7F808380818260808383B123
S11301E08F7083B983B19C2F907F892B83B9A9DF4A
S11301F083B18F7083B923B130E1C39FC00111244F
S1130200822B83B99EDFCF91089582B1806F82B92A
S1130210E1E6F0E080818E608083E2E6F0E08081B8
S11302208B7F80838FE295E70197F1F700C0000090
S113023080818D7F808380818B7F808383B1806286
S113024083B97FDF7EDF7DDF88E293DF88E291DFA1
S113025088E28FDF82E08DDF81E08BDF8CE089CF65
S11302600895823069F050F0833019F0843019F029
S113027004C080E9089580ED0895089580E8089504
S113028080EC08950F931F93CF938C01C0E004C0BA
S11302900F5F1F4F94DFCF5FC03120F4F8018081DE
S11302A08111F6CFCF911F910F910895CF93C82F4D
S11302B0862FD7DF8C0F5DDFCF910895CF93DF9327
S11302C0EA01F4DFCE01DEDFDF91CF910895CF9311
S11302D0DF93EC0180E0EADFCE01D4DFDF91CF9140
S11302E00895EF92FF920F931F93CF93DF937B01B7
S11302F08A01E90161E0EBDF62E0C701E8DF63E066
S1130300C801E5DF64E0CE01E2DFDF91CF911F9108
S11303100F91FF90EF900895882319F08DE029CF75
S113032008958CE026CF089587B3806F87BB81B38F
S1130330806F81BB089589EF81BF8BE083BF87B74E
S1130340826087BF789408953AD1EEDF5EDF7FD173
S1130350F2CF0895F9DF24E031E04DE051E06EE1A1
S113036071E08FE291E0BDDF9091630080916301C1
S1130370981751F18091630080936301813021F5D6
S113038090916401892780936401C6DF81E090E045
S113039020916401222311F080E090E040916D01EE
S11303A050916E01849F9001859F300D949F300D74
S11303B0112430936E0120936D017ED283ED90E37E
S11303C00197F1F700C0000080916401882339F09F
S11303D0FAD09927B4D088B3806188BB03C088B3AE
S11303E08F7E88BB80915F0190916001A091610133
S11303F0B0916201409100015091010160910201AC
S1130400709103018C019D01041B150B260B370B06
S1130410B901A801493E53406105710548F0809334
S1130420000190930101A0930201B093030144D20F
S113043080915F0190916001A0916101B09162018E
S11304404091650150916601609167017091680166
S11304508C019D01041B150B260B370BB901A80158
S113046041365A4E6105710548F0809365019093B9
S11304706601A0936701B093680117D180915A0176
S1130480882381F040915F01509160016091610186
S11304907091620140935B0150935C0160935D0134
S11304A070935E01882399F080916D0190916E01A3
S11304B0059620916A0130916B01821793070CF025
S11304C053CF10925A0188B38F7788BB4DCF2091B8
S11304D06A0130916B0180916D0190916E01281732
S11304E039070CF041CF81E080935A0188B38068CA
S11304F088BB3ACF1F920F920FB60F9211248F939D
S11305009F93AF93BF9380915F0190916001A091FD
S11305106101B09162010196A11DB11D80935F013B
S113052090936001A0936101B0936201BF91AF9178
S11305309F918F910F900FBE0F901F9018959091DF
S113054069019817D9F1809369018336B9F18B3029
S113055031F41092640180E090E0DECE08952091A1
S11305606D0130916E01A901440F551F220F331FF5
S1130570220F331F220F331F240F351FA901480FE9
S1130580511DCA0150936E0140936D018139914010
S113059034F080E991E090936E0180936D01809135
S11305A06D0190916E018D599F4F873C910528F004
S11305B01092640180E090E0AFDE7EC1089584B3C0
S11305C0886784BB089583E690E037C0EFE0F7E2E4
S11305D03197F1F700C00000492F50E04D5F5F4FA5
S11305E021E030E002C0220F331F4A95E2F725BB19
S11305F043B3E42FEF774E2F50E0FA013B97EC33EF
S1130600F105D0F4EA5BFF4FFAC382E015C081E044
S113061013C086E011C085E00FC084E00DC089E0FE
S11306200BC088E009C087E007C08BE005C080E00C
S113063003C08AE001C083E09F5F943038F2EFE0AA
S1130640F7E23197F1F700C0000090E0089580E4EC
S113065087B987E886B9089586B1806486B93699E2
S1130660FECF86B1806486B93699FECF84B165B178
S113067070E0762F6627682B072E000C880B990BE9
S11306809AC20895E9DF20E030E040E85AE31FD33E
S113069020E030E44CE955E41AD320E030E040EAAD
S11306A050E489D155D2CB0108950F932091720162
S11306B030917301409174015091750160917601FC
S11306C070917701809178019091790101E0A0D334
S11306D0E0915A012E2B20937201309373014093C1
S11306E07401509375016093760170937701809340
S11306F07801909379010F910895BF92CF92DF9280
S1130700EF92FF920F931F93CF93DF93B0907201F8
S1130710C0907301D0907401E0907501F09076015F
S113072010917701D0917801C0917901E0E0F0E077
S1130730B0E017C02B2D3C2D4D2D5E2D6F2D712F4C
S11307408D2F9C2F0E2F7DD3217030E040E050E0A0
S113075060E070E080E090E0A0E091D309F0BF5F3A
S11307603196EC33F10534F36B2F70E080E090E0C8
S113077020D220E030E040E752E482D120E030E0B3
S113078048EC52E4A4D2E9D1862FDF91CF911F9196
S11307900F91FF90EF90DF90CF90BF9008950F934B
S11307A01F9380916C01882321F080915A0181115B
S11307B080C080915F0190916001A0916101B0912E
S11307C0620100915B0110915C0120915D01309107
S11307D05E01BC01CD01601B710B820B930B012BDD
S11307E0022B032B31F0683E23E07207810591054B
S11307F050F483E7809371011092700110926F019D
S113080010926C0156C060362AEE7207810591057C
S113081068F423E72093710128EE33E040E050E0D0
S1130820CCD23093700120936F0143C060382EEE18
S1130830720726E38207910568F42DE6209371017F
S113084020E63AEE40E050E0B8D2309370012093B5
S11308506F012FC0611524E872072CE0820724E29F
S1130860920768F428E62093710120E83EEE46E3FF
S113087050E0A3D23093700120936F011AC0603FFF
S11308802AEF72072FEF8207920768F424E6209379
S1130890710120E03CE546E255E08FD230937001CF
S11308A020936F0106C08BE28093710181E08093F5
S11308B06C011F910F9108950F931F93CF93DF93B2
S11308C000D000D000D0CDB7DEB769DFDBDE909377
S11308D06B0180936A018E010F5F1F4F26E0F801C0
S11308E011922A95E9F76AE070E054D29F938F93AE
S11308F07F936F938DE491E09F938F931F930F9356
S1130900DED2A80161E089E0D9DCF7DE1F928F9383
S113091085E591E09F938F931F930F93D0D2A80105
S113092063E08BE0CBDC8091710190916F01409189
S113093070010FB6F894DEBF0FBECDBF8B3219F035
S113094020E431E002C027E431E01F928F934F93FB
S11309509F933F932F938E010F5F1F4F1F930F930E
S1130960AED2A80164E08BE0A9DC80916D01909186
S11309706E016AE070E00ED29F938F937F936F9322
S11309808DE491E09F938F931F930F9398D2A801C6
S113099062E089E093DC0FB6F894DEBF0FBECDBFF2
S11309A026960FB6F894DEBF0FBECDBFDF91CF9170
S11309B01F910F9108955058BB27AA270ED04DC1FF
S11309C03ED130F043D120F031F49F3F11F41EF4B6
S11309D033C10EF4E095E7FB29C1E92F4FD180F331
S11309E0BA17620773078407950718F071F49EF528
S11309F067C10EF4E0950B2EBA2FA02D0B01B9019F
S1130A0090010C01CA01A0011124FF27591B99F080
S1130A10593F50F4503E68F11A16F040A22F232F8C
S1130A20342F4427585FF3CF469537952795A795DC
S1130A30F0405395C9F77EF41F16BA0B620B730B83
S1130A40840BBAF09150A1F0FF0FBB1F661F771FF4
S1130A50881FC2F70EC0BA0F621F731F841F48F4A9
S1130A60879577956795B795F7959E3F08F0B3CF2F
S1130A709395880F08F09927EE0F97958795089519
S1130A800CD0EBC0E3D040F0DAD030F021F45F3F7B
S1130A9019F0CCC0511115C1CFC0F0D098F39923EF
S1130AA0C9F35523B1F3951B550BBB27AA2762172E
S1130AB07307840738F09F5F5F4F220F331F441F73
S1130AC0AA1FA9F333D00E2E3AF0E0E830D09150AB
S1130AD05040E695001CCAF729D0FE2F27D0660F98
S1130AE0771F881FBB1F261737074807AB07B0E8D7
S1130AF009F0BB0B802DBF01FF2793585F4F2AF0ED
S1130B009E3F510568F092C0DCC05F3FECF3983E15
S1130B10DCF3869577956795B795F7959F5FC9F749
S1130B20880F911D9695879597F90895E1E0660FD2
S1130B30771F881FBB1F621773078407BA0720F04B
S1130B40621B730B840BBA0BEE1F88F7E0950895B4
S1130B5004D06894B111B5C0089598D088F09F5717
S1130B6090F0B92F9927B751A0F0D1F0660F771FF5
S1130B70881F991F1AF0BA95C9F712C0B13081F0D5
S1130B809FD0B1E008959CC0672F782F8827B85F65
S1130B9039F0B93FCCF3869577956795B395D9F736
S1130BA03EF490958095709561957F4F8F4F9F4F40
S1130BB00895E89409C097FB3EF49095809570954C
S1130BC061957F4F8F4F9F4F9923A9F0F92F96E995
S1130BD0BB279395F695879577956795B795F1110A
S1130BE0F8CFFAF4BB0F11F460FF1BC06F5F7F4FA7
S1130BF08F4F9F4F16C0882311F096E911C07723B9
S1130C0021F09EE8872F762F05C0662371F096E8C1
S1130C10862F70E060E02AF09A95660F771F881F90
S1130C20DAF7880F9695879597F9089597F99F674E
S1130C3080E870E060E008959FEF80EC0895002460
S1130C400A941616170618060906089500240A942D
S1130C5012161306140605060895092E0394000CB3
S1130C6011F4882352F0BB0F40F4BF2B11F460FF42
S1130C7004C06F5F7F4F8F4F9F4F089557FD90586B
S1130C80440F551F59F05F3F71F04795880F97FB4C
S1130C90991F61F09F3F79F0879508951216130606
S1130CA01406551FF2CF4695F1DF08C01616170635
S1130CB01806991FF1CF869571056105089408956A
S1130CC0E894BB2766277727CB0197F908950BD0C3
S1130CD0C4CFB5DF28F0BADF18F0952309F0A6CF0A
S1130CE0ABCF1124EECFCADFA0F3959FD1F3950FBC
S1130CF050E0551F629FF001729FBB27F00DB11D9C
S1130D00639FAA27F00DB11DAA1F649F6627B00D2B
S1130D10A11D661F829F2227B00DA11D621F739F14
S1130D20B00DA11D621F839FA00D611D221F749F22
S1130D303327A00D611D231F849F600D211D822F69
S1130D40762F6A2F11249F5750408AF0E1F08823B0
S1130D504AF0EE0FFF1FBB1F661F771F881F9150BD
S1130D605040A9F79E3F510570F060CFAACF5F3F76
S1130D70ECF3983EDCF3869577956795B795F795F0
S1130D80E7959F5FC1F7FE2B880F911D9695879578
S1130D9097F9089597FB072E16F4009406D077FD73
S1130DA008D079D007FC05D03EF4909581959F4FEB
S1130DB00895709561957F4F0895A1E21A2EAA1B9C
S1130DC0BB1BFD010DC0AA1FBB1FEE1FFF1FA217F7
S1130DD0B307E407F50720F0A21BB30BE40BF50BF4
S1130DE0661F771F881F991F1A9469F7609570957D
S1130DF0809590959B01AC01BD01CF010895EE0F44
S1130E00FF1F0024001C0BBE0790F691E02D0994EF
S1130E100F93083090F0982F872F762F652F542F3B
S1130E20432F322F22270850F4CF220F331F441FA1
S1130E30551F661F771F881F991F0A95B2F70F91D8
S1130E40089597FB10F8169400080F93083098F053
S1130E500850232F342F452F562F672F782F892F93
S1130E60902DF4CF05949795879577956795579529
S1130E704795379527950A95AAF70F910895002469
S1130E80A7FD00942A17300540055005600570053C
S1130E90800590050895AA1BBB1B51E107C0AA1F3A
S1130EA0BB1FA617B70710F0A61BB70B881F991F07
S1130EB05A95A9F780959095BC01CD0108950F939B
S1130EC01F93CF93DF93CDB7DEB72E970FB6F89469
S1130ED0DEBF0FBECDBF0D891E8986E08C831A83C9
S1130EE009838FEF9FE79E838D83AE01475E5F4F3B
S1130EF06F89788DCE01019610D0EF81F885E00FCF
S1130F00F11F10822E960FB6F894DEBF0FBECDBF30
S1130F10DF91CF911F910F9108952F923F924F929D
S1130F205F926F927F928F929F92AF92BF92CF9275
S1130F30DF92EF92FF920F931F93CF93DF93CDB77E
S1130F40DEB72B970FB6F894DEBF0FBECDBF6C0192
S1130F507B018A01FC0117821682838181FFBFC154
S1130F60CE0101963C01F6019381F70193FD859131
S1130F7093FF81917F01882309F4ADC1853239F44F
S1130F8093FD859193FF81917F01853221F4B60110
S1130F9090E0D6D1E8CF912C212C312CFFE1F31530
S1130FA0D8F08B3279F038F4803279F08332A1F4BE
S1130FB0232D20611DC08D3261F0803369F4232D0F
S1130FC0216016C0832D8260382EE32DE4603E2E0E
S1130FD02AC0F32DF8601DC037FC2DC020ED280F6A
S1130FE02A3040F08E32B9F436FC75C1232D2064CA
S1130FF0322E19C036FE06C08AE0989E200D1124B8
S1131000922E11C0EAE02E9E200D1124222EF32DE3
S1131010F0623F2E08C08C3621F4832D8068382E70
S113102002C0883641F4F70193FD859193FF8191C5
S11310307F018111B3CF982F9F7D9554933028F46D
S11310400C5F1F4F9FE399830DC0833631F08337C4
S113105071F0833509F055C020C0F801808189837F
S11310600E5F1F4F88248394912C530112C02801D2
S1131070F2E04F0E511CF801A080B18036FE03C08F
S1131080692D70E002C06FEF7FEFC5014ED14C01B6
S11310908201F32DFF773F2E15C0280122E0420E76
S11310A0511CF801A080B18036FE03C0692D70E0A8
S11310B002C06FEF7FEFC5012DD14C01F32DF06815
S11310C03F2E820133FC19C0822D90E088169906C8
S11310D0A0F4B60180E290E033D12A94F5CFF50173
S11310E037FC859137FE81915F01B60190E028D1EC
S11310F021102A9421E0821A91088114910479F72D
S1131100E1C0843611F0893639F5F80137FE07C09D
S113111060817181828193810C5F1F4F08C060815F
S11311207181072E000C880B990B0E5F1F4FF32D56
S1131130FF763F2E97FF09C0909580957095619535
S11311407F4F8F4F9F4FF0683F2E2AE030E0A3017E
S113115033D1882E861844C0853731F4232D2F7E51
S1131160B22E2AE030E025C0932D997FB92E8F3618
S1131170C1F018F4883579F0AEC0803719F088379B
S113118021F0A9C0E92FE061BE2EB4FE0DC0FB2DF5
S1131190F460BF2E09C034FE0AC0292F2660B22E87
S11311A006C028E030E005C020E130E002C020E1C4
S11311B032E0F801B7FE07C06081718182819381BA
S11311C00C5F1F4F06C06081718180E090E00E5F6C
S11311D01F4FA301F1D0882E8618FB2DFF773F2ED9
S11311E036FE0DC0232D2E7FA22E891458F434FE12
S11311F00BC032FC09C0832D8E7EA82E05C0B82CEE
S1131200A32C03C0B82C01C0B92CA4FE0FC0FE014E
S1131210E80DF11D8081803321F49A2D997EA92E49
S113122009C0A2FE06C0B394B39404C08A2D867884
S113123009F0B394A3FC10C0A0FE06C0B21480F45D
S1131240280C922C9B180DC0B21458F4B60180E2FD
S113125090E076D0B394F8CFB21418F42B1802C0EF
S1131260982C212CA4FE0FC0B60180E390E068D036
S1131270A2FE16C0A1FC03C088E790E002C088E586
S113128090E0B6010CC08A2D867851F0A1FE02C010
S11312908BE201C080E2A7FC8DE2B60190E050D061
S11312A0891430F4B60180E390E04AD09A94F8CFE0
S11312B08A94F301E80DF11D8081B60190E040D0DD
S11312C08110F6CF222009F44ECEB60180E290E0E0
S11312D037D02A94F7CFF6018681978102C08FEF29
S11312E09FEF2B960FB6F894DEBF0FBECDBFDF91F4
S11312F0CF911F910F91FF90EF90DF90CF90BF900F
S1131300AF909F908F907F906F905F904F903F90A1
S11313102F900895FC010590615070400110D8F79A
S1131320809590958E0F9F1F0895FC016150704029
S113133001900110D8F7809590958E0F9F1F089506
S11313400F931F93CF93DF93FB01238121FD03C0F0
S11313508FEF9FEF2CC022FF16C046815781248156
S113136035814217530744F4A081B1819D012F5F59
S11313703F4F318320838C93268137812F5F3F4FEA
S11313803783268314C08B01EC01FB010084F185B3
S1131390E02D0995892BE1F6D80116968D919C9143
S11313A01797019617969C938E931697CE01DF910B
S11313B0CF911F910F910895FA01AA27283051F176
S11313C0203181F1E8946F936E7F6E5F7F4F8F4F72
S11313D09F4FAF4FB1E03ED0B4E03CD0670F781FD1
S11313E0891F9A1FA11D680F791F8A1F911DA11DB6
S11313F06A0F711D811D911DA11D20D009F46894EF
S11314003F912AE0269F11243019305D3193DEF696
S1131410CF010895462F4770405D4193B3E00FD04C
S1131420C9F7F6CF462F4F70405D4A3318F0495D37
S113143031FD4052419302D0A9F7EACFB4E0A6951A
S11314409795879577956795BA95C9F7009761053C
S1131450710508959B01AC010A2E06945795479592
S113146037952795BA95C9F7620F731F841F951F87
S10B1470A01D0895F894FFCFBC
S1131478E80300004C617374204F6E3A004C6173AA
S11314887420486F75723A20202020202500536567
S1131498743A2020202020202020202020430043AC
S11314A8757272656E743A20202020202020430033
S11314B82533642025630034302B206400253364ED
S10D14C82E25316400253364000072
S9030000FC
