:1000000081C000009CC000009AC0000098C00000A1
:1000100096C0000094C0000092C0000090C0000094
:100020008EC000008CC000008AC0000088C00000A4
:1000300086C0000084C0000082C000000FC2000023
:100040007EC000007CC000007AC0000078C00000C4
:1000500076C0000074C0000072C0000070C00000D4
:100060006EC000006CC000006AC0000068C00000E4
:1000700066C0000064C0000062C0000060C00000F4
:100080005EC000005CC000005AC00000C902CA0285
:10009000B302B502CA02CA02CA02CA02B702CA023F
:1000A000B902BB02CA02CA02CA02CA02CA02CA0210
:1000B000CA02CA02CA02CA02CA02CA02BD02CA02ED
:1000C000BF02C102CA02CA02CA02CA02CA02CA02E4
:1000D000CA02CA02CA02CA02CA02CA02CA02CA02C0
:1000E000CA02CA02CA02CA02CA02CA02CA02CA02B0
:1000F000CA02CA02CA02CA02CA02CA02C302CA02A7
:10010000C502C70211241FBECFEFD0E1DEBFCDBFB5
:1001100011E0A0E0B1E0E2E0F0E100E00BBF02C0DE
:1001200007900D92A438B107D9F721E0A4E8B1E017
:1001300001C01D92A339B207E1F704D160C760CFB7
:10014000E2E6F0E08081877F80838DE08A95F1F799
:1001500000008081886080838DE08A95F1F700003F
:100160008081877F80838DE08A95F1F70000089574
:10017000CF93C82F8FE99FE00197F1F700C00000EF
:10018000E2E6F0E080818B7F808380818D7F8083B9
:1001900083B18F7083B983B19C2F907F892B83B9F2
:1001A000CFDF83B18F7083B923B130E1C39FC0012A
:1001B0001124822B83B9C4DFCF910895CF93C82F28
:1001C0008FE99FE00197F1F700C00000E2E6F0E060
:1001D00080818B7F808380818260808383B18F70F8
:1001E00083B983B19C2F907F892B83B9A9DF83B119
:1001F0008F7083B923B130E1C39FC0011124822BDA
:1002000083B99EDFCF91089582B1806F82B9E1E614
:10021000F0E080818E608083E2E6F0E080818B7F79
:1002200080838FE295E70197F1F700C0000080819D
:100230008D7F808380818B7F808383B1806283B94F
:100240007FDF7EDF7DDF88E293DF88E291DF88E277
:100250008FDF82E08DDF81E08BDF8CE089CF089536
:10026000823069F050F0833019F0843019F004C006
:1002700080E9089580ED0895089580E8089580EC60
:1002800008950F931F93CF938C01C0E004C00F5FBC
:100290001F4F94DFCF5FC03120F4F80180818111BE
:1002A000F6CFCF911F910F910895CF93C82F862F2E
:1002B000D7DF8C0F5DDFCF910895CF93DF93EA01F5
:1002C000F4DFCE01DEDFDF91CF910895CF93DF938E
:1002D000EC0180E0EADFCE01D4DFDF91CF91089519
:1002E000EF92FF920F931F93CF93DF937B018A01CD
:1002F000E90161E0EBDF62E0C701E8DF63E0C8012C
:10030000E5DF64E0CE01E2DFDF91CF911F910F9135
:10031000FF90EF900895882319F08DE029CF08957C
:100320008CE026CF089589EF81BF8BE083BF87B72C
:10033000826087BF78940895E0D0E3D065DF35D13F
:10034000F2CF0895F9DF81E013DF21E031E041E1F0
:1003500051E06DE171E08EE291E0C2DF0FEF13ED4D
:1003600020E3015010402040E1F700C0000081E090
:10037000FFDE9091630080918C01981761F180916C
:10038000630080938C01813031F590918D01892734
:1003900080938D0121E030E0882311F020E030E0EF
:1003A0006091910170919201629FA001639F500D35
:1003B000729F500D11245093920140939101ABDF35
:1003C00022D180918D0190E0A3D08FE19EE401972E
:1003D000F1F700C0000080918D01882319F0A1D0B1
:1003E000992761D08091880190918901A0918A011B
:1003F000B0918B01409184015091850160918601FB
:10040000709187018C019D01041B150B260B370B86
:10041000B901A801493E53406105710548F0809338
:10042000840190938501A0938601B0938701EBD05E
:1004300020918F01309190018091910190919201D2
:100440002817390734F005968217930724F088B3EC
:1004500003C080E801C080E088BB8BCF1F920F9261
:100460000FB60F9211248F939F93AF93BF938091F8
:10047000880190918901A0918A01B0918B01019628
:10048000A11DB11D8093880190938901A0938A01D9
:10049000B0938B01BF91AF919F918F910F900FBE41
:1004A0000F901F90189590918E01981729F18093C5
:1004B0008E01833609F12091910130919201A901B9
:1004C000440F551F220F331F220F331F220F331FDC
:1004D000240F351FA901480F511DCA0150939201E5
:1004E000409391018139914034F080E991E09093FB
:1004F00092018093910187C0089584B3886784BB7B
:10050000089587B3806F87BB81B3806F81BB0895E7
:10051000982F907F92BB20E1829FC001112488BB5D
:10052000089583E690E037C0EFE0F7E23197F1F706
:1005300000C00000492F50E04D5F5F4F21E030E0E8
:1005400002C0220F331F4A95E2F725BB43B3E42FC5
:10055000EF774E2F50E0FA013B97EC33F105D0F4E2
:10056000EA5BFF4F54C282E015C081E013C086E011
:1005700011C085E00FC084E00DC089E00BC088E0A9
:1005800009C087E007C08BE005C080E003C08AE0B7
:1005900001C083E09F5F943038F2EFE0F7E23197DB
:1005A000F1F700C0000090E0089580E487B987E883
:1005B00086B9089586B1806486B93699FECF86B132
:1005C000806486B93699FECF84B165B170E0762F2C
:1005D0006627682B072E000C880B990B16C108950F
:1005E000E9DF20E030E040E85AE39BD120E030E44E
:1005F0004CE955E496D120E030E040EA50E46DD07B
:10060000D1D0CB010895CF92DF92EF92FF920F935A
:100610001F93CF93DF9300D000D000D0CDB7DEB7CB
:1006200080910001882349F027E331E048E451E05C
:1006300069E571E08AE691E053DED2DF90939001A4
:1006400080938F018E010F5F1F4F26E0F8011192FA
:100650002A95E9F70F2EFAE0CF2ED12CF02DB60116
:10066000C3D19F938F937F936F930F2EFBE7EF2E52
:10067000F1E0FF2EF02DFF92EF921F930F93E4D144
:10068000A80161E089E019DE8091910190919201C9
:10069000B601AAD19F938F937F936F93FF92EF92AE
:1006A0001F930F93D1D1A80162E089E006DE10927A
:1006B00000010FB6F894DEBF0FBECDBF26960FB671
:1006C000F894DEBF0FBECDBFDF91CF911F910F9188
:1006D000FF90EF90DF90CF9008955058BB27AA2746
:1006E0000ED0E5C0D6D030F0DBD020F031F49F3F03
:1006F00011F41EF4CBC00EF4E095E7FBC1C0E92F66
:10070000E7D080F3BA17620773078407950718F0DC
:1007100071F49EF5FFC00EF4E0950B2EBA2FA02DBC
:100720000B01B90190010C01CA01A0011124FF279E
:10073000591B99F0593F50F4503E68F11A16F04099
:10074000A22F232F342F4427585FF3CF4695379598
:100750002795A795F0405395C9F77EF41F16BA0B5D
:10076000620B730B840BBAF09150A1F0FF0FBB1F0B
:10077000661F771F881FC2F70EC0BA0F621F731F54
:10078000841F48F4879577956795B795F7959E3FB1
:1007900008F0B3CF9395880F08F09927EE0F97953F
:1007A0008795089504D06894B111B5C0089598D084
:1007B00088F09F5790F0B92F9927B751A0F0D1F04A
:1007C000660F771F881F991F1AF0BA95C9F712C0D4
:1007D000B13081F09FD0B1E008959CC0672F782F91
:1007E0008827B85F39F0B93FCCF386957795679540
:1007F000B395D9F73EF490958095709561957F4FAC
:100800008F4F9F4F0895E89409C097FB3EF4909551
:100810008095709561957F4F8F4F9F4F9923A9F0D9
:10082000F92F96E9BB279395F69587957795679568
:10083000B795F111F8CFFAF4BB0F11F460FF1BC0AC
:100840006F5F7F4F8F4F9F4F16C0882311F096E93F
:1008500011C0772321F09EE8872F762F05C06623ED
:1008600071F096E8862F70E060E02AF09A95660FA6
:10087000771F881FDAF7880F9695879597F908955F
:1008800097F99F6780E870E060E008959FEF80EC43
:10089000089500240A9416161706180609060895E6
:1008A00000240A9412161306140605060895092E4C
:1008B0000394000C11F4882352F0BB0F40F4BF2BBB
:1008C00011F460FF04C06F5F7F4F8F4F9F4F0895FB
:1008D00057FD9058440F551F59F05F3F71F04795F1
:1008E000880F97FB991F61F09F3F79F087950895D6
:1008F000121613061406551FF2CF4695F1DF08C0F5
:10090000161617061806991FF1CF86957105610511
:1009100008940895E894BB2766277727CB0197F9B9
:1009200008950BD0C4CFB5DF28F0BADF18F09523B7
:1009300009F0A6CFABCF1124EECFCADFA0F3959F6D
:10094000D1F3950F50E0551F629FF001729FBB27B6
:10095000F00DB11D639FAA27F00DB11DAA1F649F62
:100960006627B00DA11D661F829F2227B00DA11D15
:10097000621F739FB00DA11D621F839FA00D611D9B
:10098000221F749F3327A00D611D231F849F600DBC
:10099000211D822F762F6A2F11249F5750408AF0F5
:1009A000E1F088234AF0EE0FFF1FBB1F661F771F81
:1009B000881F91505040A9F79E3F510570F060CFBD
:1009C000AACF5F3FECF3983EDCF386957795679569
:1009D000B795F795E7959F5FC1F7FE2B880F911D9F
:1009E0009695879597F9089597FB072E16F400942E
:1009F00006D077FD08D014D007FC05D03EF49095C2
:100A000081959F4F0895709561957F4F0895EE0FE2
:100A1000FF1F0024001C0BBE0790F691E02D0994E7
:100A2000AA1BBB1B51E107C0AA1FBB1FA617B70714
:100A300010F0A61BB70B881F991F5A95A9F7809530
:100A40009095BC01CD0108950F931F93CF93DF9331
:100A5000CDB7DEB72E970FB6F894DEBF0FBECDBF71
:100A60000D891E8986E08C831A8309838FEF9FE7A7
:100A70009E838D83AE01475E5F4F6F89788DCE0177
:100A8000019610D0EF81F885E00FF11F10822E96AD
:100A90000FB6F894DEBF0FBECDBFDF91CF911F918F
:100AA0000F9108952F923F924F925F926F927F9293
:100AB0008F929F92AF92BF92CF92DF92EF92FF926E
:100AC0000F931F93CF93DF93CDB7DEB72B970FB65E
:100AD000F894DEBF0FBECDBF6C017B018A01FC0123
:100AE00017821682838181FFBFC1CE0101963C012E
:100AF000F6019381F70193FD859193FF81917F0129
:100B0000882309F4ADC1853239F493FD859193FFB3
:100B100081917F01853221F4B60190E0D6D1E8CFF2
:100B2000912C212C312CFFE1F315D8F08B3279F088
:100B300038F4803279F08332A1F4232D20611DC076
:100B40008D3261F0803369F4232D216016C0832D2E
:100B50008260382EE32DE4603E2E2AC0F32DF8602B
:100B60001DC037FC2DC020ED280F2A3040F08E32FA
:100B7000B9F436FC75C1232D2064322E19C036FE1F
:100B800006C08AE0989E200D1124922E11C0EAE042
:100B90002E9E200D1124222EF32DF0623F2E08C030
:100BA0008C3621F4832D8068382E02C0883641F4BB
:100BB000F70193FD859193FF81917F018111B3CF5F
:100BC000982F9F7D9554933028F40C5F1F4F9FE31F
:100BD00099830DC0833631F0833771F0833509F086
:100BE00055C020C0F801808189830E5F1F4F882483
:100BF0008394912C530112C02801F2E04F0E511C36
:100C0000F801A080B18036FE03C0692D70E002C0FB
:100C10006FEF7FEFC5014ED14C018201F32DFF77BD
:100C20003F2E15C0280122E0420E511CF801A08081
:100C3000B18036FE03C0692D70E002C06FEF7FEF18
:100C4000C5012DD14C01F32DF0683F2E820133FCFC
:100C500019C0822D90E088169906A0F4B60180E2B2
:100C600090E033D12A94F5CFF50137FC859137FE1A
:100C700081915F01B60190E028D121102A9421E0F2
:100C8000821A91088114910479F7E1C0843611F039
:100C9000893639F5F80137FE07C06081718182819C
:100CA00093810C5F1F4F08C060817181072E000C7B
:100CB000880B990B0E5F1F4FF32DFF763F2E97FF8A
:100CC00009C090958095709561957F4F8F4F9F4F8C
:100CD000F0683F2E2AE030E0A30133D1882E861839
:100CE00044C0853731F4232D2F7EB22E2AE030E028
:100CF00025C0932D997FB92E8F36C1F018F4883511
:100D000079F0AEC0803719F0883721F0A9C0E92FFB
:100D1000E061BE2EB4FE0DC0FB2DF460BF2E09C0F5
:100D200034FE0AC0292F2660B22E06C028E030E02B
:100D300005C020E130E002C020E132E0F801B7FE5A
:100D400007C060817181828193810C5F1F4F06C053
:100D50006081718180E090E00E5F1F4FA301F1D0B0
:100D6000882E8618FB2DFF773F2E36FE0DC0232DD3
:100D70002E7FA22E891458F434FE0BC032FC09C019
:100D8000832D8E7EA82E05C0B82CA32C03C0B82CB2
:100D900001C0B92CA4FE0FC0FE01E80DF11D808139
:100DA000803321F49A2D997EA92E09C0A2FE06C097
:100DB000B394B39404C08A2D867809F0B394A3FC4D
:100DC00010C0A0FE06C0B21480F4280C922C9B1810
:100DD0000DC0B21458F4B60180E290E076D0B3941E
:100DE000F8CFB21418F42B1802C0982C212CA4FEB2
:100DF0000FC0B60180E390E068D0A2FE16C0A1FC4F
:100E000003C088E790E002C088E590E0B6010CC01E
:100E10008A2D867851F0A1FE02C08BE201C080E2EB
:100E2000A7FC8DE2B60190E050D0891430F4B601F1
:100E300080E390E04AD09A94F8CF8A94F301E80DC9
:100E4000F11D8081B60190E040D08110F6CF2220C4
:100E500009F44ECEB60180E290E037D02A94F7CF65
:100E6000F6018681978102C08FEF9FEF2B960FB618
:100E7000F894DEBF0FBECDBFDF91CF911F910F91D0
:100E8000FF90EF90DF90CF90BF90AF909F908F90AA
:100E90007F906F905F904F903F902F900895FC014E
:100EA0000590615070400110D8F7809590958E0F95
:100EB0009F1F0895FC016150704001900110D8F708
:100EC000809590958E0F9F1F08950F931F93CF933A
:100ED000DF93FB01238121FD03C08FEF9FEF2CC027
:100EE00022FF16C04681578124813581421753075E
:100EF00044F4A081B1819D012F5F3F4F3183208356
:100F00008C93268137812F5F3F4F3783268314C010
:100F10008B01EC01FB010084F185E02D0995892B03
:100F2000E1F6D80116968D919C9117970196179628
:100F30009C938E931697CE01DF91CF911F910F91C5
:100F40000895FA01AA27283051F1203181F1E8945F
:100F50006F936E7F6E5F7F4F8F4F9F4FAF4FB1E0AC
:100F60003ED0B4E03CD0670F781F891F9A1FA11DA7
:100F7000680F791F8A1F911DA11D6A0F711D811DA8
:100F8000911DA11D20D009F468943F912AE0269F6D
:100F900011243019305D3193DEF6CF010895462FCC
:100FA0004770405D4193B3E00FD0C9F7F6CF462FAD
:100FB0004F70405D4A3318F0495D31FD4052419316
:100FC00002D0A9F7EACFB4E0A695979587957795D3
:100FD0006795BA95C9F700976105710508959B015A
:100FE000AC010A2E06945795479537952795BA95E3
:100FF000C9F7620F731F841F951FA01D0895F894F1
:02100000FFCF20
:1010020001215772697474656E204259204641422B
:101012000056657273696F6E20312E300054656D13
:10102200702E20636F6E74726F6C6C6572004B6110
:101032006D7261205443004C617374204F6E3A20EC
:1010420020202020202073004C61737420486F758B
:10105200723A202020202025005365743A20202057
:101062002020202020202020430043757272656ECC
:10107200743A2020202020202043002533642E258E
:0410820031640000D5
:00000001FF
