:1000000045C0000060C000005EC000005CC0000091
:100010005AC0000058C0000056C0000054C0000084
:1000200052C0000050C000004EC000004CC0000094
:100030004AC0000048C0000046C0000044C00000A4
:1000400042C0000040C000003EC000003CC00000B4
:100050003AC0000038C0000036C0000034C00000C4
:1000600032C0000030C000002EC000002CC00000D4
:100070002AC0000028C0000026C0000024C00000E4
:1000800022C0000020C000001EC0000011241FBEBE
:10009000CFEFD0E1DEBFCDBF11E0A0E0B1E0E8EDF1
:1000A000F2E000E00BBF02C007900D92A430B10750
:1000B000D9F721E0A4E0B1E001C01D92A630B2075B
:1000C000E1F78CD007C19CCF882314F0880F0895E6
:1000D00081E0089580FD02C08695089580E8089526
:1000E00090910301992339F088231CF410920301A5
:1000F00002C0880F089580FF04C091E0909303012F
:1001000008958695089580910201803821F481E058
:100110008093020103C0880F809302018091010146
:10012000813021F480E88093010103C0869580939B
:1001300001019091020180910101892B0895409164
:1001400000014430B8F5E0910401F09105019F01F0
:10015000ADECBCECB0D09695879596958795969525
:1001600087959C01220F331F880F991F880F991FB5
:10017000880F991F820F931F9F01281B390BC901FC
:100180004295407F842B80688BBB20910401309185
:10019000050191D096958795969587959695879523
:1001A0009093050180930401809100018F5F8093FB
:1001B00000010895109200019093050180930401BD
:1001C000089582BB8295807F88BB08958FEF8ABB9C
:1001D00080EF81BB87BB109264000895F7DF80E059
:1001E000D1E001C08C2F90916300992319F0C09148
:1001F000630001C0C82F8C1759F08150823028F459
:100200008FEF8C0F823018F403C0D1E001C0D1E031
:10021000C43041F128F4C13049F0C230A9F048C0DF
:10022000C83071F1C03109F439C042C08D2F4CDFA4
:10023000D82FC7DF2FEF80E792E021508040904019
:10024000E1F700C00000CECF8D2F44DFD82FB9DFFB
:100250002FEF80E792E0215080409040E1F700C00E
:100260000000C0CF8D2F3CDFD82FABDF2FEF80E712
:1002700092E0215080409040E1F700C00000B2CFF2
:100280008D2F41DFD82F9DDF2FEF80E792E02150A7
:1002900080409040E1F700C00000A4CF82ED94E0E0
:1002A0004EDF8FEC97E00197F1F700C000009ACF86
:1002B00080E087DF97CFA29FB001B39FC001A39FCB
:1002C000700D811D1124911DB29F700D811D11248F
:0802D000911D0895F894FFCF81
:0402D800048001019C
:00000001FF
