S013000070726F67326779616B2D372E7372656317
S113000045C0000053C0000051C000004FC00000B4
S11300104DC000004BC0000049C0000047C00000B4
S113002045C0000043C0000041C000003FC00000C4
S11300303DC000003BC0000039C0000038C00000D3
S113004035C0000033C0000031C000002FC00000E4
S11300502DC000002BC0000029C0000027C00000F4
S113006025C0000023C0000021C000001FC0000004
S11300701DC000001BC0000019C0000017C0000014
S113008015C0000013C0000011C0000011241FBEE1
S1130090CFEFD0E1DEBFCDBF21E0A0E0B1E001C0F1
S11300A01D92A230B207E1F731D035C0A9CF1F921B
S11300B00F920FB60F9211242F938F939F938091D9
S11300C0000190910101873E23E0920749F498B31F
S11300D080E1892788BB109201011092000105C0BC
S11300E0019690930101809300019F918F912F912C
S11300F00F900FBE0F901F90189589EF81BF8BE072
S113010083BF87B7826087BF7894089580EF81BBEF
S10D011087BBF3DFFFCFF894FFCFA5
S9030000FC
