:1000000045C0000058C0000056C0000054C00000A9
:1000100052C0000050C000004EC000004CC00000A4
:100020004AC0000048C0000046C0000044C00000B4
:1000300042C0000040C000003EC000003CC00000C4
:100040003AC0000038C0000036C0000034C00000D4
:1000500032C0000030C000002EC000002CC00000E4
:100060002AC0000028C0000026C0000024C00000F4
:1000700022C0000020C000001EC000001CC0000004
:100080001AC0000018C0000016C0000011241FBED6
:10009000CFEFD0E1DEBFCDBF11E0A0E0B1E0E2EEF6
:1000A000F1E000E00BBF02C007900D92AE35B10742
:1000B000D9F72DD094C0A4CF1092900083E389B9D2
:1000C00088E18AB986E080939500089584B38068BA
:1000D00084BB08955D9BFECF8CB908955F9BFECFD6
:1000E0008CB108950F931F93CF93DF938C01C0E0E1
:1000F000D0E002C0EFDF2196F801EC0FFD1F8081F8
:100100008111F8CFDF91CF911F910F910895CF9377
:10011000DF93CDB7DEB72C970FB6F894DEBF0FBED6
:10012000CDBF8CE0E0E0F1E0DE01119601900D9290
:100130008A95E1F7CBDFC0DF00E010E017C081E374
:10014000800FC8DF8CE091E0CDDFF801EE0FFF1FDC
:1001500081E090E08C0F9D1FE80FF91F8081918155
:10016000C1DF8FE091E0BEDF0F5F1F4F063011054A
:1001700034F3B4DF8333A1F028F4813349F08233C0
:1001800059F01BC0853399F078F08633A1F015C083
:1001900095B3906895BB11C095B39F7795BB0DC083
:1001A00093B1986093B909C093B113B806C093B1E5
:1001B000946093B902C093B113B8E82FF0E0F197BF
:1001C000EE0FFF1F81E090E08C0F9D1FE80FF91FDD
:1001D0008081918187DF8FE091E084DFCACFF8943E
:0201E000FFCF4F
:1001E20012011D0129013601440150012E20000D8A
:1001F2000A00524544204C4544204F4E005245448B
:10020200204C4544204F464600475245454E204C1F
:100212004544204F4E00475245454E204C45442010
:100222004F464600424C5545204C4544204F4E0017
:0E023200424C5545204C4544204F46460000A6
:00000001FF
